:100000004CC0E3C165C064C063C062C061C060C071
:100010005FC05EC05DC05CC05BC05AC059C058C004
:1000200057C056C055C009022200010100800A09CC
:100030000400000103000000092101010001221653
:100040000007058103080064120110010000000888
:10005000C016DF0500010102000114034400610025
:1000600074006100530074006F0072006500120399
:100070006F0062006400650076002E00610074006D
:10008000040309040600FF0901A101150026FF0071
:10009000750895800900B20201C011241FBECFE58A
:1000A000D4E0DEBFCDBF10E0A0E6B0E0E0E3F7E0D3
:1000B00002C005900D92A236B107D9F710E0A2E672
:1000C000B0E001C01D92AB39B107E1F7ECD22EC30D
:1000D00097CFCF93C62F2091700024FF07C02091A7
:1000E000710038E823272093710003C02AE520938C
:1000F0007000DC01E2E7F0E09C2F9E0F8D91819370
:10010000892F8E1B1816D4F36C2F82E790E059D1FB
:10011000CC5FC0937000CF910895CF93DF9360912F
:100120008100635067FDBEC080917E00CCE0D0E0CE
:10013000C81BD109CB57DF4F80917D008D3209F06C
:10014000A0C0683009F0ACC083EC809365008AE5FC
:1001500080936100109262008881807631F0CE0138
:1001600090D28F3F09F47CC082C09A8110926E00B9
:100170008981811106C010926F002EE630E082E086
:100180006AC0853019F49093820062C0863009F00D
:1001900049C08B81813019F488E490E01AC0823024
:1001A00041F486E290E09093800080937F0082E2A9
:1001B00035C08330F1F4911108C080E890E090934D
:1001C000800080937F0084E029C0913041F48EE666
:1001D00090E09093800080937F0082E11FC0923076
:1001E000E1F48AE590E09093800080937F0084E1C1
:1001F00015C0813241F488E390E0909380008093B1
:100200007F0089E00BC0823241F484E890E0909353
:10021000800080937F0086E101C080E090E49093AD
:10022000620025C0883069F0893019F49093840009
:100230000FC08A3049F08B3059F48BE48093710001
:1002400007C024E830E002C02EE630E081E003C0C1
:100250002EE630E080E03093800020937F0007C0DE
:10026000988197FD8E8190E89093620007C09F81EE
:10027000911104C09E81981708F4892F8093600023
:100280000FC08091620087FF0BC0CE01D9D18F3F94
:1002900021F48EE18093610003C08111109260000F
:1002A000109281008091610084FF5CC080916000A9
:1002B0008F3F09F457C0C82F893008F0C8E08C1B65
:1002C000809360008091650098E88927809365009D
:1002D000CC23B9F18091620087FF08C06C2F86E6BD
:1002E00090E094D1C82F8930B8F52BC020917F00C1
:1002F0003091800086FF12C0A6E6B0E045E650E0EF
:1003000040955095420F531F8C2F8A0FFA01EA0F28
:10031000FB1FE491ED938A13F9CF09C0E6E6F0E004
:10032000D9018C2F8E0F9D9191938E13FCCF2F5F4F
:100330003F4F8FEF8C0F280F311D3093800020939B
:100340007F006C2F86E690E03CD0CC5FCC3041F053
:100350008FEF8093600004C08FEF80936000CEE148
:10036000C093610084E190B3947131F48150D9F766
:100370001092820010927C00DF91CF91089585B792
:10038000826085BF8BB780648BBF8BE480937100E4
:100390008AE5809370000895A82FB92F80E090E03F
:1003A00041E050EA609530E009C02D918227979591
:1003B000879510F084279527305EC8F36F5FA8F308
:1003C0000895EADF8D939D930895CF93CFB7CF9390
:1003D000DF93C395849BE9F7849B0BC0849B09C082
:1003E000849B07C0849B05C0849B03C0849B01C081
:1003F0008BC06F93C0917E00DD27CB57DF4F2F93CB
:1004000065E5849B03C02F916F91E6CF0F931F93F7
:100410004F9320E040E15F9300B3047104FB27F9A0
:100420003F9350E03BE039C0147140642F77012FB7
:100430005F5F1EC0406810B314712F7752501FC009
:10044000406400B32F770471D1F15F5F00C023C017
:10045000406210B32F77147191F15F5F00C025C027
:1004600004711027515012F45D5F00001150279560
:100470002C3F10B3C8F614710127015027952C3F6B
:10048000C8F64227499300B3047110274F731150E7
:1004900027952C3FA8F64695469510B3147179F030
:1004A0000127015027952C3F98F66B5A60F3315085
:1004B00000B3B0F600C010E41ABF002719C03B50CB
:1004C0003195C31BD04010E41ABF0881033C09F1E9
:1004D0000B34F9F020917C001981110F1213EDCF2C
:1004E0004A81441F093651F10D3211F0013E29F7BE
:1004F000009383003F915F914F911F910F912F9136
:100500006F91CAB7C6FD65CFDF91CF91CFBFCF91B5
:10051000189520918300222369F310918100112303
:1005200091F5343092F13093810020937D00109149
:100530007E003BE0311B30937E0027C0009181009C
:1005400001300CF50AE54F7049F43091610034FD3B
:100550001DC000936100C5E6D0E01CC03091700062
:1005600034FD14C000937000C1E7D0E013C005272C
:1005700010E000C0000002BB1AC0052710E0221FD7
:100580001DC010E021C04AE502C032ED432FC4E196
:10059000D0E032E011B31461949A02B311BB54E17C
:1005A00020E865E320FF052702BB279517951C3F30
:1005B000F0F66695B8F7B1F720FF052702BB27953F
:1005C00017951C3FD0F62795179517FF05270000B4
:1005D0001C3F02BBB0F629913A9519F70B7E10919A
:1005E0008200110FC651D04002BB11F010937C0065
:1005F00010E41ABF006111B31B7E402F4B7E54E004
:100600005A95F1F702BB11BB42BB74CFCF93209137
:100610006300C62F261708F4C22F4C2F50E06091BC
:10062000640070E05DD0809164008C0F8093640062
:10063000809163008C1B809363008C2FCF91089571
:10064000CF93209163002223C9F0C62F261708F408
:10065000C22F4C2F50E06091640070E051D0809127
:1006600064008C0F80936400909163009C1B9093B6
:10067000630081E0992319F080E001C081E0CF910F
:100680000895FC0120812076203259F48181877FF2
:10069000813039F480E880936300109264008FEF1A
:1006A000089580E008952EE088E190E00FB6F89478
:1006B000A89581BD0FBE21BD62DE8D98959880E022
:1006C000815041F0A895EFE9FFE03197F1F700C0C4
:1006D0000000F6CF8D9A959A7894A8951EDDFDCFEF
:1006E000DC01CB01FC01E199FECF06C0FFBBEEBBF4
:1006F000E09A31960DB20D9241505040B8F70895EE
:10070000DC01CB0102C02D9105D041505040D8F7FB
:100710000895262FE199FECF9FBB8EBB2DBB0FB650
:10072000F894E29AE19A0FBE01960895F894FFCFEB
:02073000FF5A6E
:00000001FF
